:1000000000800020BD01000001260000C525000081
:10001000C5250000C5250000C5250000C525000038
:10002000C5250000C5250000C525000001260000EB
:1000300001260000C525000001260000B5250000AE
:1000400001260000951C0000012600006D21000023
:100050000126000001260000012600000126000004
:1000600001260000012600000126000001260000F4
:1000700001260000012600000126000001260000E4
:1000800001260000012600000126000001260000D4
:1000900001260000012600000126000001260000C4
:1000A00001260000012600000126000001260000B4
:1000B00001260000012600000126000001260000A4
:1000C0000126000001260000012600000126000094
:1000D0000126000001260000012600000126000084
:1000E0000126000001260000012600000126000074
:1000F000012600006D3A000001260000653F000067
:1001000001260000814300000126000001260000B6
:100110000126000001260000012600000126000043
:100120000126000001260000012600000126000033
:100130000126000001260000012600000126000023
:100140000126000001260000012600000126000013
:100150000126000001260000012600000126000003
:1001600001260000012A00000126000001260000EF
:1001700001260000012600000126000001260000E3
:1001800001260000012600000126000001260000D3
:1001900001260000012600000126000001260000C3
:1001A00001260000012600000126000001260000B3
:1001B00001260000012600000126000010B56B4B4F
:1001C0004CF220521A804DF628121A8000BF00BF50
:1001D00002F01AFA4FF01062654B1A60654A083354
:1001E0001A60654A04331A60A3F530432C3B1B6840
:1001F00013F4807F06D10022604B1A604FF4A8529E
:10020000043B1A605E4B1B7813F0080F04D05C4B64
:100210001A7842F008021A702A225A4B1A705A4B66
:100220005A4A9A420DD2131D594CE41A24F0030481
:1002300004340023104657495A581A500433A34235
:10024000FAD1554B554A9A4280F08B80131F54497E
:10025000C91A21F003011A1D1144002243F8042F8A
:100260008B42FBD17DE05A581A500433B3F5DE7F40
:10027000F9D14C4B80214C4A03F8011B9342FBD12E
:100280004A4B4B4A1A600A224A4B1A702422A3F6A0
:10029000FF731A70A022013B1A7006331A7812F00D
:1002A000020FFBD0444B1A7812F0100FFBD1424BD7
:1002B0001A7802F00C02082AFAD103223F4B1A7076
:1002C000402201331A7001331A7812F0200FFBD04C
:1002D000394B1A7812F0400FFBD0394A394B1A606B
:1002E000022204331A602022374B1A7006331A7820
:1002F00002F00C020C2AFAD1344A354B1A60354A06
:10030000354B1A60002204331A600722083B1A603A
:10031000324A03F551631A6062B602F033FA174BA2
:100320001B6813F0010F05D02D4802F09FF92D4AEC
:100330002D4B1A602D4B1B7813F0400F0AD02A4B1F
:100340001A68284B9A4205D1254802F08FF90022FD
:10035000254B1A6004F016FD02F05CF903F090F8EA
:10036000FEE70023124822497DE700BF0E2005402A
:1003700030800440823F04000100002B14D0034071
:1003800002D0074000E007404896FF1F6095FF1F1E
:100390004B96FF1FB05E00008CD1FF1F4896FF1FD9
:1003A00087D1FF1F00E400E05FE400E008ED00E01B
:1003B0000090FF1F005006400640064004400640E3
:1003C000000003014480044000400640C0100500C6
:1003D00004800440FF76010014E000E000002020CB
:1003E000D22FA756A5C3945A1CE0034000F0074043
:1003F00000000000FFFFFFFFFFFFFFFFFFFFFFFF09
:10040000FFFFFFFFFFFFFFFFFFFFFFFFFEFFFFFFFD
:1004100010B5054C237833B9044B13B10448AFF33E
:1004200000800123237010BD4896FF1F00000000CC
:10043000B05E000008B5064B1BB106480649AFF395
:1004400000800648036813B1054B03B1984708BD07
:1004500000000000B05E00004C96FF1F4896FF1F92
:1004600000000000406970470020704738B505461D
:1004700000F11804204600F0F5FF2046FF2100F0AF
:10048000D7FC2046002100F08FFC2B68DB68284653
:10049000002198472046012100F0ACFF014B1C6071
:1004A00038BD00BFACCEFF1F10B582B000238DF861
:1004B00004308DF805308DF8063000F11804204620
:1004C000019900F059FF2046012100F093FF02B08E
:1004D00010BD00BF2DE9F04F8BB003919046827C98
:1004E00019788DF8221059788DF823109B788DF8A3
:1004F0002430012A33D1534A1378013303F0070320
:10050000137003F00102D20113F0020F1CBF42F07E
:100510004002D2B213F0040F18BF42F02002103292
:100520005FFA82FE0DF122030DF1250500244FF440
:10053000807713F8012B002A7BD097FBF2F2D2B21E
:10054000511CC9B203F8041C01FB0EF6361203F865
:10055000076C09B103F8042CAB42EAD10CE000238C
:100560008DF821308DF820308DF81F308DF81E3039
:100570008DF81D308DF81C301830029000F064FFAB
:10058000B8F1000F4CD09DF822B09DF823A09DF843
:1005900024909DF81FC09DF820E09DF821709DF8E3
:1005A0001C609DF81D509DF81E40033008EB480864
:1005B000039A42440192039B4FF00008197819B145
:1005C00081FA56F1C9B200E0414602460BFB01F147
:1005D000091200F8031C597819B181FA55F1C9B212
:1005E00000E041460AFB01F1091202F8021C997869
:1005F00019B181FA54F1C9B200E0414609FB01F199
:10060000091202F8011C0333C6EB0C06F6B2C5EB67
:100610000E05EDB23C1BE4B20330019A9342CDD1FA
:100620000298012100F0E6FE0298039900F006FF0F
:1006300004E003F8044C03F8074C8DE70BB0BDE869
:10064000F08F00BF8096FF1F2DE9F04F89B00C4658
:100650009046827C19788DF81A1059788DF81B1005
:100660009B788DF81C30012A33D1524A137801331C
:1006700003F00703137003F00102D20113F0020F1D
:100680001CBF42F04002D2B213F0040F18BF42F078
:10069000200210325FFA82FC0DF11A030DF11D06E3
:1006A00000254FF4807E13F8012B002A79D09EFBA1
:1006B000F2F2D2B2511CC9B203F8041C01FB0CF7D0
:1006C0003F1203F8077C09B103F8042CB342EAD1C6
:1006D0000CE000238DF819308DF818308DF81730A4
:1006E0008DF816308DF815308DF8143018300190D3
:1006F00000F09EFE0246B8F1000F4DD09DF81A00A2
:100700009DF81BB09DF81CA09DF817909DF818C08F
:100710009DF819E09DF814709DF815609DF816502D
:10072000D31C08EB480808F103089044CDF800807A
:100730004FF00008217819B181FA57F1C9B200E0F1
:1007400041461A4600FB01F1091203F8031C6178C7
:1007500019B181FA56F1C9B200E041460BFB01F133
:10076000091202F8021CA17819B181FA55F1C9B237
:1007700000E041460AFB01F1091202F8011CC7EB37
:100780000907FFB2C6EB0C06F6B2C5EB0E05EDB2DB
:100790000333009A9342CDD10198012100F02AFE43
:1007A00004E003F8045C03F8075C8FE709B0BDE8D8
:1007B000F08F00BF8096FF1F08B51C4B1B6813F01D
:1007C000010F27D1194801F027FF18B3184B00215A
:1007D0005960FF221A735A739A73DA731A745A742F
:1007E00001229A7459619960124B1B6813B9104A1F
:1007F000104B1A60104B1B680BB10D4A9A600C48E5
:100800000D4B18600D4B40F8183B00F029FE0748CF
:1008100001F008FF06480A494FF48062002301F006
:1008200007FE2022074B1A7008BD00BF8496FF1FE9
:100830006496FF1FB0CEFF1FC0CEFF1F184F0000F1
:100840008896FF1F9CCEFF1F2DE9F843124D05F53A
:1008500080590026DFF8448019E0384602F048FE4F
:10086000D8F80030984205D201232B552B19FF22CE
:10087000DA7002E02E552B19DE702A5D2B195A70A2
:100880009E700434802CE8D180354D4502D034462A
:100890006427E2E7BDE8F88388A2FF1F6495FF1F85
:1008A000F0B4441C274B1C4003D5013C64F01F04EA
:1008B00001344E1C234D2E4003D5013E66F01F0629
:1008C000013600F11F051F4F3D4003D5013D65F086
:1008D0001F05013501F11F021A4F3A4003D5013AB5
:1008E00062F01F020132184B6401671803EB87079F
:1008F00097F801C04001871903EB87077F786744A9
:100900006D01294403EB810149780F44104403EB46
:10091000800041787818A11903EB810149780844D7
:100920002E4403EB860671780844154403EB8505D5
:1009300069780844224403EB82035B781844F0BCD6
:10094000704700BF1F00008088A2FF1F70B5002005
:10095000082102F0D9FD06287CD8DFE800F0041554
:10096000263748596A00444901F140060023434CA8
:1009700051F8042F100C1855E018150A45708270B4
:100980000333B142F4D170BD3D4901F1400600236B
:100990003A4C51F8042F100C1855E018150A457000
:1009A00082700333B142F4D170BD364901F1400683
:1009B0000023324C51F8042F100C1855E018150A7A
:1009C000457082700333B142F4D170BD2E4901F1FC
:1009D00040060023294C51F8042F100C1855E0183C
:1009E000150A457082700333B142F4D170BD2749B6
:1009F00001F140060023214C51F8042F100C18552A
:100A0000E018150A457082700333B142F4D170BD0D
:100A10001F4901F140060023184C51F8042F100C17
:100A20001855E018150A457082700333B142F4D1AD
:100A300070BD184901F140060023104C51F8042FF5
:100A4000100C1855E018150A457082700333B14236
:100A5000F4D170BD104901F140060023074C51F854
:100A6000042F100C1855E018150A457082700333D6
:100A7000B142F4D170BD00BF405B000088B2FF1FDF
:100A8000C05B0000805B0000805A0000005A00003C
:100A9000005B0000405A0000C05A00002DE9F04FF2
:100AA00089B07C4B1B68002B40F0E6808DF8143039
:100AB0008DF815308DF8163077484FF4806105AA0F
:100AC00001F088FBFFF7C0FE744B1B7823B1744B19
:100AD0001A7882F001021A70724B1B780BB1FFF783
:100AE00035FF714B1B78002B00F0C68032205A2155
:100AF00002F00AFD03F082FF6C4904F087F86C4BAA
:100B00001860B9E098F80030DBB105EB450A06EB58
:100B10000A092278920063780121009106A85946BB
:100B200002F0FC0201F068FB9DF8183006F80A306C
:100B30009DF8193089F801309DF81A3089F8023093
:100B400026E014F8023C012B1BD105EB450A06EB0D
:100B50000A092278920063780121009107A859467A
:100B600002F0FC0201F048FB9DF81C3006F80A3048
:100B70009DF81D3089F801309DF81E3089F802304B
:100B800006E005EB4501721800237354537093700F
:100B90002035ADB20434BC42B4D1039B013303937E
:100BA0008037202B07D1424BD3F800A0DFF8048117
:100BB0000027BB463CE0039B9DB2A7F18004A1E760
:100BC00008EB0405E87848B16B783BB903F016FFF1
:100BD000514603F067FF04F0B5F8E8703846314637
:100BE000FFF75EFE03280CD16B7893B94FF0010339
:100BF00009F80430AB780233AB704FF0FF33EB7081
:100C000007E00238012804D96B78012B08BF09F8E6
:100C100004B001360434802CD2D1013708F18008A9
:100C2000202F05D1234B03F580551A4600240CE0F4
:100C30005C460026C146C3E7D05CD1184870043337
:100C4000802BF9D18032AA4201D02346F4E7114B20
:100C50001B680133FF2B02DC0E4A136002E0002206
:100C60000C4B1A60144C2046217801F051FB2046B1
:100C7000212101F0B3FB0AE00E4B03F182070023B0
:100C80000393DFF81C80044EDFF830B093E709B01F
:100C9000BDE8F08FB8B2FF1F8896FF1F6C95FF1F4D
:100CA0006D95FF1F6195FF1F6095FF1F0000C842F3
:100CB0006895FF1F88A2FF1F9CCEFF1F88B2FF1FF1
:100CC00070B44FF48063013BFDD1154901F140063A
:100CD0000023144C51F8042F100C1855E018150A75
:100CE000457082700333B142F4D10F4901F18004A1
:100CF00001F58455012206200CE003F8042C03F8CA
:100D0000032C03F8020C04338B42F6D121468034C5
:100D1000AC4202D00B1D8431EFE770BC704700BFBE
:100D2000005B000088B2FF1F88A2FF1F0160002344
:100D300043608360704700BF82680068824214BFCE
:100D400000200120704700BF426883681A4403688E
:100D500092FBF3F003FB1020704700BF42680132A2
:100D6000036892FBF3F103FB112343608368013BAB
:100D70008360704783680268934207D142680132FA
:100D800092FBF3F103FB112343607047013383604F
:100D9000704700BF406870470B7803704B78437012
:100DA0008B788370704700BF014B1970704700BF8C
:100DB0006E95FF1F10B4084B1C78002307480849A4
:100DC0005A5A04FB02F212121A520233B3F5007F90
:100DD000F6D15DF8044B70477895FF1FBCB2FF1F3A
:100DE000005600000B4B1B78022B07D0032B0AD0B8
:100DF000012B0CD1084B185C00027047074B185CA4
:100E0000000380B27047064B33F8100070470002B1
:100E1000704700BF6E95FF1F00590000005800008A
:100E200000560000014B33F810007047BCB2FF1FA2
:100E3000C1F1FF01024B19600122024B1A70704789
:100E4000C0B4FF1FBCB4FF1F30B4224B1B68002B83
:100E500002DA00221F4B1A601E4B1B688A6802EBE5
:100E6000430532F813400246844229D003D3002BB5
:100E700028DB29461CE04C88A34226DA294607E0F5
:100E800031F8020F824203D1124A136018461EE065
:100E90000133A342F4DB0F4A13604FF0FF3016E03A
:100EA00031F8023D9A4202D10A4B18600FE0034626
:100EB000581E002BF4D1074B18604FF0FF3006E0AE
:100EC000184604E04FF0FF3001E04FF0FF3030BC37
:100ED000704700BFC4B4FF1F38B50D4614465378A1
:100EE0008B420AD91146FFF7AFFF002807DB627873
:100EF000E36800FB0230405D38BD002038BD0020B3
:100F000038BD00BF2DE9F04F87B0564B9988084691
:100F1000002900F0A48000220192DFF868B1524B52
:100F20000593524A1568019B9D4200F38E80504BF9
:100F30001B685C7805EB040C019A944540F38580AE
:100F400001264C4A16704C4A12681E783346961990
:100F500005D5002701379A1903D51646FAE7164634
:100F60000027EBB2019AD51AEDB28445C4BFC3EB9A
:100F70000103DCB2414B1B788BB13B4B03F1800981
:100F80004FF0800848460021424603F023FF4846C0
:100F90000599424601F074FA0022384B1A70A046B7
:100FA0000295651B0495002D0FDD2F49019801EB7B
:100FB00080037C3301F17C022946014402EB81016C
:100FC000002243F8042F8B42FBD12D4B1B78BB42F0
:100FD00036DD244B5B88B34232DD234B019A03EBB1
:100FE00082020392DFF8889022E01BF80700E1B24A
:100FF000D9F80020FFF770FF0006002EB4BF00FAFA
:101000000AF0F040D5F880300343C5F88030013451
:1010100004354445E9DBD9F800301B781E4401371C
:10102000174B1B78BB420BDD0E4B5B88B34207DDD1
:1010300002988045EFDD039D0446C6F1000AD4E71F
:1010400004994B1E019A1A440192019B01330193AA
:10105000044B99880846019A91423FF762AF07B066
:10106000BDE8F08F7095FF1F10B5FF1F8895FF1F1B
:101070007C95FF1F11B6FF1FC8B4FF1FD5B4FF1F1B
:10108000D6B4FF1FDCB4FF1F08B5084B1B7813F064
:10109000FF0F0AD0064901F18000802201F0F0F92B
:1010A000FFF730FF0022014B1A7008BD10B6FF1F7A
:1010B00010B5FF1F08B52A4B1B68002B4ED02949DD
:1010C0000A780132D2B20A7027490978914245D292
:1010D0000021244A1170254A1278052A38D8DFE801
:1010E00002F003152637370321490A68013A0A60DE
:1010F000204909688A422FDC1F4A11681C4A116086
:10110000002B29DD013B164A136025E018490A68C7
:10111000013A0A60174909688A421DDC0221134A14
:101120001170002B18DD013B0D4A136014E01049CB
:101130000A6801320A60104909688A420CDB012101
:101140000A4A1170002B07DD013B054A136003E0DA
:101150000A4B1A68064B1A60FFF7D4FE08BD00BFA1
:10116000D8B4FF1FD4B4FF1F7995FF1F8095FF1FD0
:10117000C8B4FF1FCCB4FF1FD0B4FF1F8495FF1F5E
:1011800070B5174B1B78032B16D8DFE803F0130953
:10119000020EC0F11F04E4B2C1F11F01CDB20BE099
:1011A000C0F11F05EDB20C4606E0C1F11F04E4B228
:1011B000054601E00D460446C4F11F04012303FA6D
:1011C00004F405F12001074B53F821301C4205D0EF
:1011D00010460549FFF7E0FD012070BD002070BDFD
:1011E0007095FF1F10B5FF1F8C95FF1F00EB40008F
:1011F000024B1B6803EB4010704700BF9895FF1F20
:10120000F8B50C46154691420EDC03EB43035F0133
:10121000064E3068384404EB4402104406A9FFF738
:10122000BBFD0134AC42F4DDF8BD00BF9095FF1F5B
:101230002DE9F04114461E469A4211DC02EB4202AF
:101240005501DFF8208001EB4107D8F80000284461
:10125000384406A9FFF7A0FD01346035B442F4DD3F
:10126000BDE8F0819095FF1F70B582B014468A42A8
:1012700002DA0A4621461446002C51DB294A5588D9
:10128000A9424DDA002B4BDB9288934248DA21EADF
:10129000E176A542DCBF05F1FF3424B2214D2D7863
:1012A0005DB9069AADF80020120C8DF80220F1B25B
:1012B000E2B2DBB2FFF7A4FF32E0022D11D1C4F19C
:1012C0001F01C6F11F02C3F11F03069DADF80050B8
:1012D0002D0C8DF80250C9B2D2B2DBB2FFF790FFED
:1012E0001EE0012D0DD1C3F11F01069AADF80020BB
:1012F000120C8DF80220C9B2F2B2E3B2FFF798FFE8
:101300000EE0C4F11F02C6F11F06069DADF80050A5
:101310002D0C8DF80250D9B2D2B2F3B2FFF788FF8C
:1013200002B070BD7095FF1F2DE9F04383B0814678
:101330000E461F46BDF928309A4202DD11461A4674
:101340000B46BE4202DD31463E460F4614469846E5
:101350009A420EDC0B9DADF800502D0C8DF802501A
:10136000484631463A4623B2FFF77EFF01344445F2
:10137000F0DD03B0BDE8F08300B585B0084AB2F9EE
:101380000230B2F904200092ADF80410090C8DF877
:10139000061000210A46FFF7C7FF05B05DF804FB01
:1013A0007095FF1F0D4B1B7813F0FF0F15D00C48E5
:1013B00003780C490A7802700B700B4902EB420269
:1013C00001EB82220948026003EB430301EB832116
:1013D000074A11600022014B1A70704712B6FF1FB6
:1013E0009495FF1F14CEFF1F14B6FF1F9895FF1F83
:1013F0009095FF1F08B50B4A137813F0FF0FFBD130
:101400000122084B1A7061B11A46137813F0FF0FCE
:10141000FBD1054B1868054B19684FF4406201F089
:101420002FF808BD12B6FF1F9095FF1F9895FF1F5C
:10143000014B1868704700BF9095FF1F014B196062
:10144000704700BF9095FF1F034B187800EB4000DA
:10145000024B03EB8020704714CEFF1F14B6FF1F12
:10146000704700BF2DE9F04F8BB0AB480421FFF768
:101470005DFCAA4900234B808A1D08241D4606E016
:1014800013F0010F0CBFCD80CC800432043113F077
:10149000020F05D032F8040C40F0100022F8040CC2
:1014A00013F0040F05D032F8040C40F0020022F8CB
:1014B000040C13F0080F05D032F8040C40F00400BF
:1014C00022F8040C32F8040CC04300F01E0022F88D
:1014D000060C0133102BD3D1914BD3F800E0914B84
:1014E0001F6800220B2343F2D40640F2CB184FF4BE
:1014F000F07C8D4D46FA03F084B204F1150189B2F7
:101500000EFB00F090FBF7F0153080B2B1F5F07FE4
:1015100004D2C4EB0804204480B26146AC18618058
:101520005053013B0432B3F1FF3FE3D14DE27F4919
:101530000B78002B39D1FFF735FFFFF7A5FDFFF73B
:1015400039FCFFF7B7FD7A4B1B7813F0FF0F2CD057
:10155000734B1F68734B1E6800220B2343F2D405A4
:1015600040F2CB1C4FF4F07E45FA03F084B204F154
:10157000150189B207FB00F090FBF6F0153080B240
:10158000B1F5F07F04D2C4EB0C04204480B2714664
:10159000654C1444618064495052013B0432B3F1FC
:1015A000FF3FE1D10022624B1A70604A1378013389
:1015B000DBB20F2B91BF137000235C4F3B705B4F6E
:1015C0003F780597554B03EB87025788DDF814E009
:1015D00033F82E605048FFF7B7FB00231A46C0B21D
:1015E00000EB400C4FEA8C0C05460CEB0204DFF8D4
:1015F0004CE10EEBC4018E80CF80DFF82CE19E44DD
:10160000BEF802E0A1F802E0DFF81CE133F80E10AA
:10161000DFF828E12EF83410013204330C2AE3D12C
:10162000444B1B780293444B1B78003318BF0123B3
:1016300001930598FFF7DAFD0390059F07F110036A
:10164000DBB207931846FFF7D1FD0490DFF8ECE01A
:101650000EF5C07305EB450503EB05240025AB46ED
:10166000029FFFB15FFA8BF0059908AAFFF788FD8A
:10167000C0B1019F7FB19DF82000FFF7B3FB80460A
:101680009DF82100FFF7AEFB07469DF82200FFF70B
:10169000A9FB064621E09DF820809DF821709DF869
:1016A00022601AE0019F7FB1039F785DFFF7BAFBCC
:1016B00080463E462E447078FFF7B4FB0746B0786C
:1016C000FFF7B0FB064606E0039F17F805803B4690
:1016D0002B445F789E78029991B35FFA8BF007995B
:1016E00009AAFFF74DFD58B3019A72B19DF8240085
:1016F000FFF778FB82469DF82500FFF773FB8146D4
:101700009DF82600FFF76EFB37E09DF824A09DF8BA
:1017100025909DF8260069E260CEFF1F18CEFF1FBE
:10172000C0B4FF1F005A00006CCEFF1F15CEFF1F74
:10173000BCB4FF1F11B6FF1F6E95FF1F0082FF1F75
:10174000019B93B1DDF810E01EF80500FFF76AFB7E
:1017500082460499294406914878FFF763FB814645
:10176000069A9078FFF75EFB07E0049B13F805A04C
:101770002B4493F80190987838E24FEA28183F11EB
:1017800036114FEA2A1A4FEA29190011002166F38F
:10179000041168F300016AF3861167F3C71169F356
:1017A000820160F34511B6B2731063F30C311FFA76
:1017B00088F84FEA680363F308211FFA8AFA4FEAB0
:1017C0006A0363F38E31BFB27B1063F3CF311FFA2C
:1017D00089F94FEA690363F38A2180B2431063F306
:1017E0004D31B31063F314514FEAA80363F3104172
:1017F0004FEAAA0363F39651BB1063F3D7514FEA44
:10180000A90363F39241831063F35551F31063F31B
:101810001C714FEAE80363F318614FEAEA0363F3CC
:101820009E71FB1063F3DF714FEAE90363F39A6182
:10183000C31063F35D710022331163F304124FEAA6
:10184000281363F300024FEA2A1363F386123B1155
:1018500063F3C7124FEA291363F38202031163F3A0
:101860004512731163F30C324FEA681363F30822D5
:101870004FEA6A1363F38E327B1163F3CF324FEA80
:10188000691363F38A22431163F34D32B31163F397
:1018900014524FEAA81363F310424FEAAA1363F3FA
:1018A0009652BB1163F3D7524FEAA91363F39242E6
:1018B000831163F35552F31163F31C724FEAE8137B
:1018C00063F318624FEAEA1363F39E72FB1163F34A
:1018D000DF724FEAE91363F39A62C31163F35D7237
:1018E00000234FEA262E6EF304134FEA282E6EF3E0
:1018F00000034FEA2A2E6EF386134FEA272E6EF36B
:10190000C7134FEA292E6EF382034FEA202E6EF39F
:1019100045134FEA662E6EF30C334FEA682E6EF3D2
:1019200008234FEA6A2E6EF38E334FEA672E6EF36A
:10193000CF334FEA692E6EF38A234FEA602E6EF39F
:101940004D334FEAA62E6EF314534FEAA82E6EF3D2
:1019500010434FEAAA2E6EF396534FEAA72E6EF36A
:10196000D7534FEAA92E6EF392434FEAA02E6EF39F
:101970005553F61266F31C734FEAE82868F31863B0
:101980004FEAEA2A6AF39E73FF1267F3DF734FEAA6
:10199000E92969F39A63C01260F35D7321606260A4
:1019A00041F00231E16042F002322261A36043F073
:1019B000023363610BF1010B18340335BBF1200FC7
:1019C0007FF44EAE9248FFF7D5F99148FFF7B4F98E
:1019D00000283FF4ACADFFF7EDF90E20012100F037
:1019E00079FE0620012100F075FE0220012100F0A1
:1019F00071FE1520012100F06DFE0520012100F08F
:101A000069FE0720012100F065FE1420012100F08D
:101A100061FE0920012100F05DFE0A20012100F095
:101A200059FE1620012100F055FE1720012100F07B
:101A300051FEDFF848820023C8F80030754A136071
:101A400043F2D40274490A60152008310860734FCC
:101A50003A60734A116841F4517111604FF451704A
:101A600070490860116841F4803111606E490A685C
:101A700042F4003242F480720A606C4A116841F00C
:101A800002011160043A116841F002011160684AD4
:101A9000116841F0800111606648026822F00F026F
:101AA0000260654C2370654A1370DFF8D4C18CF86E
:101AB000003002321370DFF8CCA1614AC2F800A0F6
:101AC0004FF6FC770432178008210832116040F28B
:101AD0000225063A15805B4D023215605A4D0832D8
:101AE000156004321780043211600122A5F57625B5
:101AF000723D2A8008352A804FF49076023D2E8070
:101B0000B1252570514E351DA4F5BF34A4F5F074F0
:101B1000256002244E4D2C800425DFF86C91C9F815
:101B2000005040F20119DFF864B1ABF800900BF1FE
:101B3000020BCBF800500BF1080BCBF800A0DFF83C
:101B400050A1AAF80070434F3960023F3A8008372D
:101B50003A80023F3B8004373E6004373C800837C0
:101B60003D60063FA7F8009002373D603A4D07F50B
:101B70003F3707F574772F604FF6F07704352F80E5
:101B8000202704352F60023D2A8008352A804FF433
:101B90004875324A1580B4228CF8002006F5C076CC
:101BA0002F4A16600C222F4D2A8008352B60063DE7
:101BB0002B802D4E02352E602C4E08352E600435BC
:101BC0002B8004352B602A4B1A8008331A80023B85
:101BD0001C80284B1960FE25274A15701C6003687D
:101BE00043F00F030360C8F800100DE04FEA082827
:101BF0001FFA88F83F02BFB23602B6B24FEA0A2A8D
:101C00004FEA09290002B8E50BB0BDE8F08F00BF2C
:101C100060CEFF1F049003400890034018900340DB
:101C200030900440349004400CC004404080044094
:101C3000008000400C800040001002400110024073
:101C400000900040082000C088F00F400082FF1F75
:101C50002490004038900040509000405C9000403C
:101C600060900040649000404004F4BFC0F00F401A
:101C70007690004000E100E001E400E000900340C5
:101C8000021002405CCEFF1F2C90004026900040C6
:101C9000349000402DE9F04F8BB04DE288490B782D
:101CA000002B39D1FFF77EFBFFF7EEF9FFF782F843
:101CB000FFF700FA834B1B7813F0FF0F2CD0824BF9
:101CC0001F68824B1E6800220B2343F2D40540F2AA
:101CD000CB1C4FF4F07E45FA03F084B204F11501F9
:101CE00089B207FB00F090FBF6F0153080B2B1F539
:101CF000F07F04D2C4EB0C04204480B27146744CD3
:101D00001444618072495052013B0432B3F1FF3FE9
:101D1000E1D100226B4B1A70694A13780133DBB2B0
:101D20000F2B91BF13700023DFF894E18EF8003081
:101D3000634909780591674B03EB8102578833F8B3
:101D400021606548FFF700F800231A46C0B200EB97
:101D5000400C4FEA8C0C05460CEB0204DFF884E1E2
:101D60000EEBC4018E80CF80DFF864E19E44BEF8A4
:101D700002E0A1F802E0DFF858E133F80E10DFF8D6
:101D800064E12EF83410013204330C2AE3D1534BB2
:101D90001B780293524B1B78003318BF0123019329
:101DA0000598FFF723FA0390059901F11003DBB2C0
:101DB00007931846FFF71AFA04904A4A02F5C073CF
:101DC00005EB450503EB05240025AB46029BFBB163
:101DD0005FFA8BF0059908AAFFF7D2F9C0B1019913
:101DE00079B19DF82000FEF7FDFF80469DF82100A7
:101DF000FEF7F8FF07469DF82200FEF7F3FF0646C0
:101E000022E09DF820809DF821709DF822601BE063
:101E1000019A7AB1039B585DFFF704F88046039E50
:101E20002E447078FEF7FEFF0746B078FEF7FAFF03
:101E3000064607E0DDF80CE01EF8058073462B44EB
:101E40005F789E780299F1B15FFA8BF0079909AA41
:101E5000FFF796F9B8B1019A72B19DF82400FEF728
:101E6000C1FF82469DF82500FEF7BCFF81469DF824
:101E70002600FEF7B7FF37E09DF824A09DF82590D7
:101E80009DF826005FE1019B93B1DDF810E01EF89C
:101E90000500FEF7C7FF8246049929440691487859
:101EA000FEF7C0FF8146069A9078FEF7BBFF1BE065
:101EB000049B13F805A02B4493F80190987842E115
:101EC00015CEFF1FBCB4FF1FC0B4FF1F005A000097
:101ED0006CCEFF1F18CEFF1F60CEFF1F11B6FF1F75
:101EE0006E95FF1F0082FF1F4FEA28183F11361121
:101EF0004FEA2A1A4FEA29190011002166F304114A
:101F000068F300016AF3861167F3C71169F3820170
:101F100060F34511B6B2731063F30C311FFA88F801
:101F20004FEA680363F308211FFA8AFA4FEA6A034B
:101F300063F38E31BFB27B1063F3CF311FFA89F99F
:101F40004FEA690363F38A2180B2431063F34D3192
:101F5000B31063F314514FEAA80363F310414FEA3F
:101F6000AA0363F39651BB1063F3D7514FEAA90359
:101F700063F39241831063F35551F31063F31C71C3
:101F80004FEAE80363F318614FEAEA0363F39E71D3
:101F9000FB1063F3DF714FEAE90363F39A61C31047
:101FA00063F35D710022331163F304124FEA2813C7
:101FB00063F300024FEA2A1363F386123B1163F3C3
:101FC000C7124FEA291363F38202031163F3451228
:101FD000731163F30C324FEA681363F308224FEA7C
:101FE0006A1363F38E327B1163F3CF324FEA6913C6
:101FF00063F38A22431163F34D32B31163F3145236
:102000004FEAA81363F310424FEAAA1363F3965200
:10201000BB1163F3D7524FEAA91363F392428311C2
:1020200063F35552F31163F31C724FEAE81363F341
:1020300018624FEAEA1363F39E72FB1163F3DF72D7
:102040004FEAE91363F39A62C31163F35D720023ED
:102050004FEA262E6EF304134FEA282E6EF3000388
:102060004FEA2A2E6EF386134FEA272E6EF3C7131C
:102070004FEA292E6EF382034FEA202E6EF34513AA
:102080004FEA662E6EF30C334FEA682E6EF3082388
:102090004FEA6A2E6EF38E334FEA672E6EF3CF331C
:1020A0004FEA692E6EF38A234FEA602E6EF34D33AA
:1020B0004FEAA62E6EF314534FEAA82E6EF3104388
:1020C0004FEAAA2E6EF396534FEAA72E6EF3D7531C
:1020D0004FEAA92E6EF392434FEAA02E6EF35553AA
:1020E000F61266F31C734FEAE82868F318634FEAA8
:1020F000EA2A6AF39E73FF1267F3DF734FEAE92956
:1021000069F39A63C01260F35D732160626041F00D
:102110000231E16042F002322261A36043F00233F7
:1021200063610BF1010B18340335BBF1200F7FF411
:102130004DAE0D48FEF71EFE0B48FEF7FDFD0028D4
:102140003FF4ACAD0DE04FEA08281FFA88F83F02D3
:10215000BFB23602B6B24FEA0A2A4FEA0929000294
:10216000C2E60BB0BDE8F08F60CEFF1F38B5124C51
:102170002046FEF7F3FD2046FEF70CFE0F4A430013
:10218000191802EB41110D1D0D4C25602034216002
:1021900002F5C072034402EB03230A490B600A4BA9
:1021A0001A6842F080721A600222084B1A600322F9
:1021B000074B1A7038BD00BF60CEFF1F0082FF1FA3
:1021C00020900040609000403090044000E200E029
:1021D0001F80004030B400290CDD01EB41050023D5
:1021E0001178C1545478C1184C7094788C700333B2
:1021F000AB42F5D130BC70472DE9F00116090F460E
:1022000006EB4604214412F00F0248D09DF814401A
:10221000002C48D143E0CF1C110181F0FF0202FBEA
:1022200005F6C6F307263D7801FB05F506EB2525E7
:10223000EDB20CFB02FCCCF3072C7C7804FB01F420
:102240000CEB2424E4B208FB02F2C2F30726BA78AE
:1022500002FB01F206EB2222D2B2FF2B1BD0BBB154
:102260000133DBB22DB103FB05F5C5F307250135BD
:10227000EDB22CB103FB04F4C4F307240134E4B23F
:102280004AB103FB02F2C2F307220132D2B202E0EA
:102290000022144615460570447082700BE00D78DC
:1022A0004C788A78D9E70D7891F801C091F80280CE
:1022B0000F2EB0D1B0E7BDE8F0017047FF220270E9
:1022C00000224280C2604FF0FF328260704700BF40
:1022D00030B40C4A13685C1C14608B4210DB0A4A51
:1022E00015684FF47A7101FB04F4084B1968691AF8
:1022F000B4FBF1F1418000200249086012681A60C5
:1023000030BC7047B4CEFF1FC4CEFF1FBCCEFF1F32
:102310002DE9F04F83B080468A462E4CD8F8043021
:102320003BB100F0F9F92368C01AD8F804209042B4
:10233000F4D300F0F1F9274B1860D8F80C3023B132
:102340005046D8F8081098478246234B1C68002C4A
:1023500039D0002694F81290B8F80230632B98BF59
:10236000A6742368D3F804C0616862698DF80460BC
:102370008DF805608DF80660BAF1000F1BD004F1EE
:102380000B05334604F10C0B15F8017FCBEB050E62
:1023900004F10F001EF8000057B148B1013700FBEF
:1023A00007770AFB07F0000C0DF1040E03F80E008E
:1023B0000133032BE8D1204601ABE04784F81290AB
:1023C000A468002CC6D140461921FFF781FF03B055
:1023D000BDE8F08FB8CEFF1FB0CEFF1FF8B50446A2
:1023E0000F46074B1E681D4620462178FFF790FFD9
:1023F00001F094F82B689B1BBB42F5D3F8BD00BFDE
:10240000C4CEFF1F4AB181B1084B93FBF1F1436881
:102410008B422CBF43604160704721B1034B93FB5B
:10242000F1F14160704700234360704740420F0064
:10243000F8B504460F4615461E1EDCBF164600259D
:1024400003689B68984705EB45052F446760666104
:1024500023685B6920469847014603480122FFF73D
:10246000D1FF2046F8BD00BF9CCEFF1F0020704763
:1024700008B50248FFF722FF08BD00BF9CCEFF1F32
:10248000844641EA000313F003036DD1403A41D37F
:1024900051F8043B40F8043B51F8043B40F8043B3E
:1024A00051F8043B40F8043B51F8043B40F8043B2E
:1024B00051F8043B40F8043B51F8043B40F8043B1E
:1024C00051F8043B40F8043B51F8043B40F8043B0E
:1024D00051F8043B40F8043B51F8043B40F8043BFE
:1024E00051F8043B40F8043B51F8043B40F8043BEE
:1024F00051F8043B40F8043B51F8043B40F8043BDE
:1025000051F8043B40F8043B51F8043B40F8043BCD
:10251000403ABDD2303211D351F8043B40F8043B6D
:1025200051F8043B40F8043B51F8043B40F8043BAD
:1025300051F8043B40F8043B103AEDD20C3205D37D
:1025400051F8043B40F8043B043AF9D2043208D075
:10255000D2071CBF11F8013B00F8013B01D30B88E7
:1025600003806046704700BF082A13D38B078DD0C5
:1025700010F003038AD0C3F10403D21ADB071CBF97
:1025800011F8013B00F8013B80D331F8023B20F801
:10259000023B7BE7043AD9D3013A11F8013B00F83A
:1025A000013BF9D20B7803704B7843708B788370C2
:1025B00060467047024B1A6801321A60704700BFCC
:1025C000C4CEFF1F08B50D4C236813F4802F01D033
:1025D00000F016FA236813F4806F01D001F046FA78
:1025E000236813F4006F01D001F0BCFC236813F4DE
:1025F000805FE9D001F0C4FEE6E700BF348004400C
:1026000008B5FFF7DFFF00BF1022014B1A807047AB
:1026100000200540704700BF0078D0F1010038BFAE
:102620000020704701230370704700BFEFF313834E
:10263000ABB9EFF31083ABB9EFF3058323B10F2BE5
:1026400005D9094A985C03E04FF4807000E000204F
:10265000EFF311833BB1834238BF184670474FF008
:10266000FF30704700207047F0E300E0044B002289
:102670001A6004490A60044A106010221A60704708
:1026800014D0034004D0034000D0034021281ED8BA
:102690000F4B53F8303093F8802212F0FF0F08D020
:1026A00019B1012283F880207047012283F80021AC
:1026B0007047074B03EBC000436821B11A6842F032
:1026C00003021A6070471A6822F002021A6070470B
:1026D000045C000021281CD80E4B03EBC0035B6890
:1026E000012908D10B4A52F8302082F880124FF4A9
:1026F000A2721A607047074A52F83020002082F810
:10270000800219B94FF480721A60704740F20312C8
:102710001A607047045C000072B60C4B1B680C4AD0
:1027200012680C49096862B611F0806F02D0322B32
:1027300088BF0132C3F5BB33FF330749A1FB030355
:102740009B094FF47A7000FB0230704718E000E0FC
:10275000C4CEFF1F04ED00E0ABAAAAAA38B5054617
:10276000FFF7DAFF044665B1FFF7D6FF001BB0F5AF
:102770007A7F03D3013D04D004F57A7400F0CEFED5
:10278000F2E738BD10B5254B4FF400021A604FF048
:1027900080721A604FF000721A604FF080621A6007
:1027A0004FF000621A6000201D4B18604BF6FF715D
:1027B0000433196028231B4A13600832136008325F
:1027C0001360083213600832136008321360083255
:1027D0001360083213600922134C226004F5805400
:1027E00004342060043421600434236008342360FE
:1027F000143C226004F5FE24043420600B48016080
:102800000B490B6008310B600A4B1A6000F0A8FE00
:102810000420FFF7A3FF00F06BFC10BD08E100E00F
:10282000048003400C8003400080034008800B407C
:102830000C800B4000800B4030B40E4B1B7843F0F3
:1028400002020D4C04EBC20460600C4800780028C2
:102850000CBF8824C82444EA0141074D45F83210D2
:1028600080F00100054A107083F00103014A1370E3
:1028700030BC704730CFFF1F0080FF1FA9CFFF1F64
:1028800010B4431E032B11D872B60A4A52F8230023
:1028900050B14268074941F82320074A32F81340F3
:1028A0000188611A22F8131062B600E000205DF87A
:1028B000044B704720CFFF1F7CD1FF1F0138032836
:1028C0000DD872B6074B53F820302BB100200130E1
:1028D0005B68002BFBD100E0002062B6704700204F
:1028E000704700BF74CFFF1F38B572B601231B4974
:1028F0001B4C5A1812F8012C12F0080F24D09A0021
:1029000054F832506DB9164B03EBC20108304860E1
:10291000144943F83210144B1A78013A1A7062B60F
:1029200038BD42F0010254F832506DB90C4B03EB44
:10293000C201083048600D4943F832100A4B1A783A
:10294000013A1A7062B638BD0133052BD1D162B697
:102950000022054B1A7000F02FFC38BD145D0000FA
:102960000080FF1F880040009ECFFF1FC80040006E
:1029700010B4431E032B37D8400140F010001C4A0E
:10298000104472B61B4AD25C032A09D8DFE802F071
:1029900019021B050830022216E00830042213E059
:1029A000154A52F823201AB9134A42F8231003E0BB
:1029B000124A52F823205160104A42F8231062B69E
:1029C00012E0032200E005220A4CE25401F1080360
:1029D000436000F00803002B0CBF8823C8230A883B
:1029E00043EA0243036062B65DF8044B704700BFE0
:1029F0000080FF1FDCCEFF1F74CFFF1F84CFFF1F9F
:102A00002DE9F84FA34CDFF8E092DFF8E0A2DFF801
:102A1000E0B22578EDB215F0040F1DD09E4B1B7867
:102A200013F0FF0F16D09D4B1B7803F0FF022BB164
:102A3000531EDBB2994A137003B900BE984B1B7842
:102A400003F0FF0233B1531EDBB2954A13700BB98A
:102A500000F0F2FC0423237015F0080F00F0DC8274
:102A600099F80030DBB21D0940F01D828D4D9E08A3
:102A700005EBC6035A6855F83630C3F38303013BB0
:102A80000C2B00F20C82DFE813F0C701C7010A0229
:102A90000A020A020A020A020A02E4010A020A02FD
:102AA0000A020D00804913680B6052684A607F4A31
:102AB00045F8362000227E490A607A490A618A6117
:102AC00001217C4A11709BB240F28162934218D876
:102AD000B3F5D06F2ED2B3F5817F00F01E8106D8FA
:102AE000802B00F0C980822B00F0CC8062E140F2A4
:102AF0000232934200F02681B3F5A06F00F05E81B0
:102B000058E142F22102934200F0828107D8B3F5E6
:102B1000086F00F0AB80B3F5106F11D04AE142F2BC
:102B20002122934200F0418142F22132934200F08F
:102B300045813FE1604B5D68002D40F0188130E138
:102B4000594B9A78544B1A70564D05F180062B6AF2
:102B500013F0800F03D0686A083800F02DFB0835A9
:102B6000B542F4D1DFF88C8100263746534AB0587D
:102B700028B1456800F020FB0DB12846F9E7002395
:102B80004E4973504E4AB3504E4BF05828B14568E9
:102B900000F012FB0DB12846F9E7002349497350B4
:102BA000494AB35028F8023F484BFB5C023B032BD9
:102BB0000AD8DFE803F0020602060022434BDA558A
:102BC00002E00122414BDA5501370436102ECDD1F7
:102BD00000223F4B1A7001253E4EDFF81C81314F19
:102BE00005EB080313F8013C06F8043B13F0080F4B
:102BF0002DD000F0C1FA48B1A90007EB451200F151
:102C000008035360344A47F8312007E0AB00002244
:102C100047F833202E4B1A7801321A7000F0ACFAC4
:102C200058B1AB0043F0010307EBC30100F1080208
:102C30004A601E4A47F8332009E0AB0043F0010325
:102C4000002247F83320224B1A7801321A70AA006A
:102C500042F00201002347F8313042F0030247F806
:102C6000323001351D4B9E42BAD116E20A4B1B7819
:102C70001B4D2B700127A6E0194D00232B706B70A4
:102C80000227A0E0084B9B88042B37D90F22154B55
:102C90001A70BDE080200740A8CFFF1F31CFFF1F73
:102CA000AACFFF1F0080FF1F94CFFF1FC800400066
:102CB000C8CEFF1FA9CFFF1F185D000020CFFF1F48
:102CC000CCCEFF1F74CFFF1F84CFFF1FDCCEFF1FB2
:102CD0009ECFFF1FC420074088004000D42007403B
:102CE000A0CFFF1FC020074090200740942007403E
:102CF000982007407AD1FF1F145D00009E4A0021F2
:102D0000117051709D4A12F8233013F0020F58D001
:102D1000994D01232B70022755E0994B9B8803F0B6
:102D20007F02042A02DC964A52881AB10F22934B82
:102D30001A706DE0914A12F8231021F0020102F896
:102D40002310AAE18E4B9B8803F07F02042A02DC49
:102D50008B4A52881AB10F22884B1A7058E0874A62
:102D600012F8231041F0020102F8231095E1844B80
:102D70005E889F88834BA3F10C02114633F80C0C3C
:102D8000B04209D133F80A0CB84205D1360A032EF5
:102D90000CBF2F78178916E00D690C330C32002D0B
:102DA000EBD10F22754B1A7032E0754B9A78764B47
:102DB0001A7072E10F22714B1A7029E000273D460C
:102DC00001E002276C4D6E4BDB889F4228BF1F46F7
:102DD000402F34BF3E46402628463146FFF72CFDA3
:102DE0003544BF1B03D13F2E00F25C8110E0402F21
:102DF00034BF3E46402628463146FFF71DFD354488
:102E0000BF1B01D13F2E03D9604B1D60604B1F805B
:102E100001238AF8003042E0594B198842F221031D
:102E2000994212D15B4BD81D12F8011B03F8011F08
:102E30008342F9D1584B1B68862B02D10F22574B86
:102E40001A7000200146FFF7F7FC554B45F8363065
:102E500025E04E4B1E68BEB14D4FB7F80080B8F16B
:102E6000400F34BF4546402530462946FFF7E4FC75
:102E7000C5EB08039BB23B800BB9402D01D1354413
:102E800000E00025414B1D603D4B1B88B3F5A06F52
:102E900005D13B4B00225A709B788BF80030012300
:102EA0008AF80030B5E03F4E9F0806EBC708D8F817
:102EB0000420A2F10800013DEDB213F0080F47D045
:102EC00000F07AF9384B53F825304BB35A6836493D
:102ED00041F8252003F10802C8F80420334A525D66
:102EE000032A12D8DFE802F002060A0E03212F4A55
:102EF00051550AE002212D4A515506E005212B4A81
:102F0000515502E00421294A515518F0080F0CBF11
:102F10008822C8221B8842EA034346F8373078E00B
:102F2000224B5B5D032B0BD8DFE803F073730206C3
:102F300000221E4B5A556CE001221C4B5A5568E08A
:102F400018F0080F0CBF02220322184B5A5560E0FC
:102F500056F837301B0C22F8083C002B51D00023C8
:102F600022F8063C42F8043C114B53F825300BBBC9
:102F70000F4B43F8250021E0A0CFFF1FC0200740E2
:102F800094CFFF1F245D0000B8CFFF1FC8CEFF1FE6
:102F90009CCFFF1F83D1FF1F84D1FF1F31CFFF1FA5
:102FA000C80040000080FF1F74CFFF1FDCCEFF1F52
:102FB00020CFFF1F3F4B53F8253058603D4B43F85F
:102FC00025003D4B33F8151032F8082C0A4423F83D
:102FD000152000F0D1F860B100F10803C8F8043002
:102FE00018F0080F354B364A08BF134646F83730FD
:102FF0000FE0002346F83730324B1A7801321A704E
:1030000007E018F0080F2D4B2D4A08BF134646F86D
:10301000373008232370FCE415F0010F22D02A4931
:1030200002230B700022294B1A70294B2448186088
:10303000284C5C6098602848D8601A619A610D201D
:10304000264B1870FF232648037008380370183089
:103050000270244A13709F22234B1A7001230B70B5
:10306000BDE8F88F15F0800F05D00D221B4B1A70AC
:103070008022403B1A7015F0020F06D0184B1A78C8
:10308000D2B21A700222083B1A7015F0100F0ED03F
:103090001022164B1A70BDE8F88F00200146FFF78A
:1030A000CBFBB5E628460021FFF7C6FBB0E6BDE83E
:1030B000F88F00BFCCCEFF1F7CD1FF1FC80040009F
:1030C000880040009ECFFF1F9420074030CFFF1F95
:1030D0000080FF1FE0CEFF1F34CFFF1FC02007403E
:1030E000882007408C20074084200740802007402C
:1030F00008B501F0A5F900231B491A465A50C81813
:1031000042600833882BF9D1184B1A6842F48022A8
:103110001A60154BC3F30721154A1170C3F3074119
:10312000143211701B0E04321370FF23343A1370E3
:1031300008321370783A137001238432137000211F
:103140006C3211707C3A137070220A4B1A704FF473
:103150000072A3F241331A60102203F1C04303F559
:10316000C8231A7008BD00BF0080FF1F34800440D0
:103170009C20074049E400E072B60D4B1A68B2FA91
:1031800082F30B2B02D962B6002070474FF000414A
:10319000D94022EA010206490A6062B6054903EBFA
:1031A000C303DB00C8180022CA504260704700BF4A
:1031B0009C95FF1F0092FF1F08B50F4BC31A0F4AC3
:1031C000A2FB03131B090B2B14D80D4A12783AB13A
:1031D0000C4A127812F0FF0F02D0FFF785FB08BDF2
:1031E00072B6094A4FF0004121FA03F311681943FE
:1031F000116062B608BD00BF0092FF1F398EE33830
:103200009ECFFF1FA8CFFF1F9C95FF1F10B5134B2C
:103210001B6853B9124B1B7813F0FF0F18D0032013
:10322000FFF72EFB0D4B1860A8B10C4B18684388B4
:103230005A1C03441C7A03889A4206D3FFF7BCFF4A
:103240000022064B1A60204610BD4280204610BD69
:103250004FF0FF3010BD4FF0FF3010BDB4CFFF1F57
:10326000A8CFFF1F08B50D4B1B6883B90C4B1B780B
:1032700013F0FF0F08D00320FFF702FB074B186085
:1032800028B94FF0FF3008BD4FF0FF3008BD034BA9
:103290001B685A881344187A08BD00BFB4CFFF1FBB
:1032A000A8CFFF1F044B9888044B1B681BB11A88DA
:1032B0005B88D31A184470477CD1FF1FB4CFFF1F1F
:1032C0002DE9F04704460122374B1A700E460029BB
:1032D00064D0DFF8E080DFF8E0909A46334FD8F80A
:1032E000003083BB99F8003013F0FF0F06D10022A5
:1032F0002D4B1A704FF0FF30BDE8F0874AF2F925E8
:103300000420FFF7DBFA07280AD801238AF80030E7
:10331000FFF732FFC8F80000A8B900238AF8003090
:10332000013D01D03B7833B10122204B1A704FF0A0
:10333000FF30BDE8F08700F0F1F899F8003013F0A5
:10334000FF0FDDD1D3E700233B70D8F800104A8887
:10335000C2F14005AE4238BF354602F108030B44C6
:103360002A444A80761B3DB1254414F8012B03F80A
:10337000012BAC42F9D100E025464B883F2B07D901
:1033800040230B800420FFF7F3FA0023C8F8003035
:103390000522074B1A700EB12C46A0E70020024B05
:1033A0001870BDE8F08700BFABCFFF1FB0CFFF1F85
:1033B000AACFFF1FACCFFF1FA8CFFF1F00B583B060
:1033C00002AB03F8010D18460121FFF779FF03B0A6
:1033D0005DF804FB10B5144B1B7813F0FF0F21D0E0
:1033E0000122124B1A70124B196851B10024114B73
:1033F0001C704B880B800420FFF7BAFA0C4B1C6042
:103400000DE0FFF7B9FE014630B10022094B1A70FA
:103410000420FFF7ADFA02E00122064B1A700022E9
:10342000024B1A7010BD00BFA8CFFF1FABCFFF1F0C
:10343000ACCFFF1FAACFFF1F08B50E4B1B7813F0B0
:10344000FF0F16D10C4B196841B14B880B8004203B
:10345000FFF78EFA0022084B1A6008BDFFF78CFEBA
:10346000014618B10420FFF783FA08BD0122034B7F
:103470001A7008BDABCFFF1FACCFFF1FAACFFF1F35
:1034800008B5FDF799F9FDF709FB00F047F8FAE7F1
:1034900010B4124B1968D9B1114C81FB0423CA181E
:1034A000CB17C3EB22420F4800FB121284FB01042E
:1034B0002144C3EB21430C4800FB03F344F2A71063
:1034C00000FB0230002804DA00F10040013800E07F
:1034D0000648024B18605DF8044B7047BCCFFF1FD5
:1034E0005F0B4E831DF30100ECF4FFFF42CE0C1F77
:1034F00010B5044630B1FFF7CBFFB0FBF4F303FB8C
:10350000140010BD002010BD10B50446884204DA36
:10351000081AFFF7EDFF204410BD10BD08B50F4B92
:103520001B78CBB901220D4B1A70FFF7BBFE08B117
:1035300001F078F900F036FA08B101F03BF800F03C
:10354000ADFC08B101F0BCF800F0CAFE08B101F012
:103550003DF90022014B1A7008BD00BFC0CFFF1F0C
:1035600060223A4B1A70E12201331A70384B1B78F3
:10357000082B10D1012203F1804303F56C331A604C
:10358000132334490B6001F5FF2101F2FC710A603D
:10359000314A13601FE00A2B0DD139222F4B1A60DC
:1035A00013232C490B6001F5FF2101F2FC710A6025
:1035B000294A13600FE00C2B0CBF35223D22274B0C
:1035C0001A60122323490B6001F5FF2101F2FC71FF
:1035D0000A60214A1360224B1B7833B10123214A30
:1035E000136002F50022136005E000231D4A1360FA
:1035F00002F5002213601C4B1B78012B06D8802398
:103600001A4A136002F5002213601AE0042B06D850
:103610008423164A136002F50022136011E0082B80
:1036200006D88523114A136002F50022136008E0D2
:10363000102B94BF862387230C4A136002F50022C7
:10364000136001220A4B1A70704700BF0040074008
:10365000A095FF1F0CB003400CB00B4008B0034016
:10366000C2CFFF1F20B00340A195FF1F24B003402D
:10367000C1CFFF1F194B1A6842F480621A60002301
:10368000174A1370174A1370174A1370174A1370AA
:10369000174A137040F21332164B1A604FF45172EE
:1036A00004331A60C0F34432134B1A70C0F347124C
:1036B0005A7000F01F00987204229A700221D97487
:1036C0005A7588221A743C22DA7040220B4B1A7009
:1036D0004FF40052A3F229331A607047348004403B
:1036E00048D0FF1FC4CFFF1F50D0FF1F49D0FF1F7E
:1036F000C3CFFF1F40A0044000A006402DE400E01F
:10370000164B9B7803F0EC0300F00302134310F018
:10371000040F18BF43F01003104A937000F00F031A
:10372000042B04D11346927942F040029A710B4B5C
:103730005A7902F0EF0210F0100F18BF42F0100299
:10374000064B5A719B7903F0EF0310F0200F18BF5E
:1037500043F01003014A9371704700BF00A0064078
:1037600010B5114B1B6813F4806F1CD00F4B1B78E6
:1037700013F0FF0F06D00D4CFFF7D0FE237813F0A7
:10378000FF0FF9D14FF40052094B1A600023094A88
:10379000D37040F2031208490A6004310A60074AF4
:1037A0001370074A137010BD34800440C3CFFF1F4D
:1037B00084E100E000A0064040A0044048D0FF1F84
:1037C000C4CFFF1F10B50446094A137813F0FF0F4A
:1037D000FBD120460121FEF77DFF20460021FEF7A8
:1037E00055FF044B53F83420034B1A6010BD00BF43
:1037F000C3CFFF1F045C00004CD0FF1F2DE9F04138
:1038000007461F4B1B6813F4806F37D01D4B1B6896
:103810000BB101221A701C4B1C780134402C28BFBC
:1038200000241A4D1A4EDFF86C8017E0FEF7FEFEFA
:1038300040280FDC337913F0800F0FD02B78013341
:10384000402B28BF002318F80320D2B2F271DBB25C
:103850002B7003E0FF2801DDFFF760FE2B78DBB261
:103860009C42E3D0FFB20B4B1F5501220A4B1A704A
:10387000E4B2054B1C70BC22054BDA70BDE8F08148
:10388000348004404CD0FF1F50D0FF1F49D0FF1F91
:1038900000A00640C8CFFF1FC3CFFF1F2DE9F84F80
:1038A0000746284B1B6813F4806F49D0264B1B68D2
:1038B0000BB101221A7007EB010B5F453DD2DFF817
:1038C0009890224EDFF88C80DFF890A099F80040A5
:1038D0000134402C28BF00243578EDB2A54220D118
:1038E000BC2388F80330FEF7A1FE402811DC98F8CD
:1038F000043013F0800F10D033780133402B28BFF1
:1039000000231AF80320D2B288F80720DBB2337004
:1039100003E0FF2801DDFFF701FE3378DBB29D42B3
:10392000E1D017F8013B0AF804300122084B1A7065
:10393000E4B289F800405F45C8D1BC22054BDA707B
:10394000BDE8F88F348004404CD0FF1F49D0FF1FE2
:10395000C3CFFF1F00A0064050D0FF1FC8CFFF1FDE
:1039600010B5064B1B7813F0FF0F06D0034CFFF782
:10397000D5FD237813F0FF0FF9D110BDC3CFFF1F82
:10398000064B1B78DBB2064A1278D2B293422CBFA8
:103990003F3202F1FF32D01A704700BF50D0FF1FF4
:1039A00049D0FF1F054B1878C0B2054B1B78DBB21E
:1039B000984238BF4030C01A704700BF48D0FF1F40
:1039C000C4CFFF1F0A4B1A78D2B20A4B1B78DBB266
:1039D0009A4209D00133402B28BF0023064AD05C0D
:1039E000DBB2044A137070474FF0FF30704700BFDE
:1039F00048D0FF1FC4CFFF1F08D0FF1F094B1A7804
:103A0000D2B2094B1B78DBB29A4207D00133402B6C
:103A100028BF0023054AD05CC0B270474FF0FF308A
:103A2000704700BF48D0FF1FC4CFFF1F08D0FF1F43
:103A30000A4B1B6813F4806F0FD0094BDA7802F041
:103A4000CB02DA7040225A74DA7842F03402DA702B
:103A5000044B1A78D2B2044B1A7070473480044079
:103A600000A00640C4CFFF1F48D0FF1F70B4364BE4
:103A70001B7913F0300F25D072B6334B9B7D03F0CA
:103A8000FF022BB9304BDA7940225A7462B619E042
:103A900062B62E4B1978C9B22D4B1D78EDB22A4C67
:103AA0002C4EE379D8B24B1C402B28BF0023AB42ED
:103AB0001CBFF0541946531E13F0FF02F1D1C9B2D6
:103AC000224B1970204BDA78D2B212F0800F27D037
:103AD0001B7913F0800F23D01F4B1C78E4B21F4BCF
:103AE0001B78DBB29C4210D017491D4D01E0A34268
:103AF0000BD00133402B28BF00230879E85CC0B20B
:103B0000C871087DC0B20728F1D9DBB213490B7028
:103B10000D4B1B7913F0800F02D07C210A4BD9701A
:103B200012F0400F0ED0084B1B7913F0400F09D054
:103B300000220C4B1A700C4B1B6803B11A703C220C
:103B4000014BDA7070BC704700A0064048D0FF1FE0
:103B5000C4CFFF1F08D0FF1F50D0FF1F49D0FF1F49
:103B6000C8CFFF1FC3CFFF1F4CD0FF1F194B1A68D0
:103B700042F400621A600023174A1370174A137048
:103B8000174A1370174A1370174A137040F2133212
:103B9000164B1A604FF4517204331A60C0F344326A
:103BA000134B1A70C0F347125A7000F01F0098723E
:103BB00004229A700221D9745A7588221A743C2200
:103BC000DA7040220B4B1A704FF40042A3F22B33F1
:103BD0001A60704734800440BCD0FF1F52D0FF1FD2
:103BE000C4D0FF1FBDD0FF1F51D0FF1F0CB0044039
:103BF00000B006402FE400E0164B9B7803F0EC0386
:103C000000F00302134310F0040F18BF43F0100339
:103C1000104A937000F00F03042B04D113469279DD
:103C200042F040029A710B4B5A7902F0EF0210F009
:103C3000100F18BF42F01002064B5A719B7903F027
:103C4000EF0310F0200F18BF43F01003014A9371E7
:103C5000704700BF00B0064010B5114B1B6813F44D
:103C6000006F1CD00F4B1B7813F0FF0F06D00D4CCC
:103C7000FFF754FC237813F0FF0FF9D14FF4004203
:103C8000094B1A600023094AD37040F20312084915
:103C90000A6004310A60074A1370074A137010BDA6
:103CA0003480044051D0FF1F84E100E000B00640A2
:103CB0000CB00440BCD0FF1F52D0FF1F10B504460B
:103CC000094A137813F0FF0FFBD120460121FEF7BC
:103CD00001FD20460021FEF7D9FC044B53F83420A7
:103CE000034B1A6010BD00BF51D0FF1F045C0000E1
:103CF000C0D0FF1F2DE9F04107461F4B1B6813F48E
:103D0000006F37D01D4B1B680BB101221A701C4B82
:103D10001C780134282C28BF00241A4D1A4EDFF8D5
:103D20006C8017E0FEF782FC40280FDC337913F03B
:103D3000800F0FD02B780133282B28BF002318F8D1
:103D40000320D2B2F271DBB22B7003E0FF2801DD59
:103D5000FFF7E4FB2B78DBB29C42E3D0FFB20B4BC6
:103D60001F5501220A4B1A70E4B2054B1C70BC228D
:103D7000054BDA70BDE8F08134800440C0D0FF1FED
:103D8000C4D0FF1FBDD0FF1F00B0064054D0FF1F9E
:103D900051D0FF1F2DE9F84F0746284B1B6813F43D
:103DA000006F49D0264B1B680BB101221A7007EB3C
:103DB000010B5F453DD2DFF89890224EDFF88C80F2
:103DC000DFF890A099F800400134282C28BF002487
:103DD0003578EDB2A54220D1BC2388F80330FEF738
:103DE00025FC402811DC98F8043013F0800F10D027
:103DF00033780133282B28BF00231AF80320D2B2CE
:103E000088F80720DBB2337003E0FF2801DDFFF7FD
:103E100085FB3378DBB29D42E1D017F8013B0AF80D
:103E200004300122084B1A70E4B289F800405F4563
:103E3000C8D1BC22054BDA70BDE8F88F348004404D
:103E4000C0D0FF1FBDD0FF1F51D0FF1F00B00640E4
:103E5000C4D0FF1F54D0FF1F10B5064B1B7813F0C2
:103E6000FF0F06D0034CFFF759FB237813F0FF0F29
:103E7000F9D110BD51D0FF1F064B1B78DBB2064AAB
:103E80001278D2B293422CBF273202F1FF32D01AFD
:103E9000704700BFC4D0FF1FBDD0FF1F054B18786F
:103EA000C0B2054B1B78DBB2984238BF4030C01A15
:103EB000704700BFBCD0FF1F52D0FF1F0A4B1A78BB
:103EC000D2B20A4B1B78DBB29A4209D00133402BA5
:103ED00028BF0023064AD05CDBB2044A1370704747
:103EE0004FF0FF30704700BFBCD0FF1F52D0FF1F04
:103EF0007CD0FF1F094B1A78D2B2094B1B78DBB27A
:103F00009A4207D00133402B28BF0023054AD05CDA
:103F1000C0B270474FF0FF30704700BFBCD0FF1FEA
:103F200052D0FF1F7CD0FF1F0A4B1B6813F4006F99
:103F30000FD0094BDA7802F0CB02DA7040225A74C3
:103F4000DA7842F03402DA70044B1A78D2B2044BB9
:103F50001A7070473480044000B0064052D0FF1FF2
:103F6000BCD0FF1F70B4364B1B7913F0300F25D037
:103F700072B6334B9B7D03F0FF022BB9304BDA79DD
:103F800040225A7462B619E062B62E4B1978C9B253
:103F90002D4B1D78EDB22A4C2C4EE379D8B24B1C38
:103FA000402B28BF0023AB421CBFF0541946531EC0
:103FB00013F0FF02F1D1C9B2224B1970204BDA780D
:103FC000D2B212F0800F27D01B7913F0800F23D0CC
:103FD0001F4B1C78E4B21F4B1B78DBB29C4210D005
:103FE00017491D4D01E0A3420BD00133282B28BFF8
:103FF00000230879E85CC0B2C871087DC0B2072808
:10400000F1D9DBB213490B700D4B1B7913F0800F04
:1040100002D07C210A4BD97012F0400F0ED0084B11
:104020001B7913F0400F09D000220C4B1A700C4B77
:104030001B6803B11A703C22014BDA7070BC7047E8
:1040400000B00640BCD0FF1F52D0FF1F7CD0FF1F26
:10405000C4D0FF1FBDD0FF1F54D0FF1F51D0FF1F82
:10406000C0D0FF1F174B1A6842F480521A60002319
:10407000154A1370154A1370154A1370154A1370B8
:10408000154A137040F21331144A11604FF4517104
:1040900004321160C0F34431114A1170C0F347116A
:1040A000517000F01F009072937013742C23D37022
:1040B00040220C4B1A704FF40032A3F22D331A60D9
:1040C000704700BF3480044030D1FF1FC6D0FF1FAF
:1040D00038D1FF1F31D1FF1FC5D0FF1F08C00440DA
:1040E00000C0064031E400E0164B9B7803F0EC037F
:1040F00000F00302134310F0040F18BF43F0100345
:10410000104A937000F00F03042B04D113469279E8
:1041100042F040029A710B4B5A7902F0EF0210F014
:10412000100F18BF42F01002064B5A719B7903F032
:10413000EF0310F0200F18BF43F01003014A9371F2
:10414000704700BF00C0064010B5114B1B6813F448
:10415000805F1CD00F4B1B7813F0FF0F06D00D4C67
:10416000FFF7DCF9237813F0FF0FF9D14FF4003299
:10417000094B1A600023094AD37040F20312084920
:104180000A6004310A60074A1370074A137010BDB1
:1041900034800440C5D0FF1F84E100E000C0064029
:1041A00008C0044030D1FF1FC6D0FF1F10B5044621
:1041B000094A137813F0FF0FFBD120460121FEF7C7
:1041C00089FA20460021FEF761FA044B53F83420A7
:1041D000034B1A6010BD00BFC5D0FF1F045C000078
:1041E00034D1FF1F2DE9F04107461F4B1B6813F424
:1041F000805F37D01D4B1B680BB101221A701C4B1E
:104200001C780134282C28BF00241A4D1A4EDFF8E0
:104210006C8017E0FEF70AFA40280FDC337913F0C0
:10422000800F0FD02B780133282B28BF002318F8DC
:104230000320D2B2F271DBB22B7003E0FF2801DD64
:10424000FFF76CF92B78DBB29C42E3D0FFB20B4B4B
:104250001F5501220A4B1A70E4B2054B1C70AC22A8
:10426000054BDA70BDE8F0813480044034D1FF1F83
:1042700038D1FF1F31D1FF1F00C00640C8D0FF1F3B
:10428000C5D0FF1F38B505460C4629B115F8010BFE
:10429000FFF7A8FF013CF9D138BD00BF10B5064BB0
:1042A0001B7813F0FF0F06D0034CFFF737F9237884
:1042B00013F0FF0FF9D110BDC5D0FF1F064B1B78BF
:1042C000DBB2064A1278D2B293422CBF273202F1F7
:1042D000FF32D01A704700BF38D1FF1F31D1FF1F06
:1042E000054B1878C0B2054B1B78DBB2984238BF3B
:1042F0004030C01A704700BF30D1FF1FC6D0FF1F2B
:104300000A4B1A78D2B20A4B1B78DBB29A4209D018
:104310000133402B28BF0023064AD05CDBB2044A9D
:10432000137070474FF0FF30704700BF30D1FF1F50
:10433000C6D0FF1FF0D0FF1F094B1A78D2B2094B2D
:104340001B78DBB29A4207D00133402B28BF0023F1
:10435000054AD05CC0B270474FF0FF30704700BFD5
:1043600030D1FF1FC6D0FF1FF0D0FF1F024B1A78BD
:10437000D2B2024B1A707047C6D0FF1F30D1FF1F58
:10438000264B1B7913F0200F12D0244BDB79D9B2C6
:10439000234B1B780133402B28BF0023214A12787E
:1043A000D2B29A4204D0204AD154DBB21C4A1370D4
:1043B0001A4BDB78DBB213F0800F1CD0174A12794E
:1043C00012F0800F17D0194A1178C9B2184A127822
:1043D000D2B2914203D16C21104AD1700BE001326C
:1043E000282A28BF00221349885CC0B20B49C87133
:1043F000D2B20F490A7013F0400F0ED0074B1B7951
:1044000013F0400F09D000220B4B1A700B4B1B68A6
:1044100003B11A702C22014BDA70704700C00640BD
:1044200030D1FF1FC6D0FF1FF0D0FF1F38D1FF1FB4
:1044300031D1FF1FC8D0FF1FC5D0FF1F34D1FF1FD0
:1044400000B585B072B61B4B70221A7041211A4A12
:1044500011700F21013A117080221A701A461378D8
:1044600013F0800FFBD0154B186862B6144B9842BE
:104470009CBF00EB8000400001A90A2200F0E2F995
:104480009DF804307BB908E001A9595C31B19180F5
:10449000023201330A2BF7D100E0002301335B0025
:1044A000084A137003E0074A53800123ECE705B084
:1044B0005DF804FB000002400700024008000240D3
:1044C0007F9698003096FF1F08B503681B68C9B235
:1044D000984708BD08B503681B68C9B2984708BD6E
:1044E00008B503681B68C9B2984708BD08B50368DA
:1044F0001B68C9B2984708BD08B54B0803F137607F
:1045000000F5D830B0FBF1F0FFF7B4F808BD00BFFC
:1045100010B514464B0803F1376000F5D830B0FBF6
:10452000F1F0FFF7A7F82046FFF7EAF810BD00BF4B
:1045300008B5FFF715F908BD08B50846FFF742F9B9
:1045400008BD00BF08B5FFF72DFA08BD08B5FFF795
:1045500055FA08BD08B5FFF735FA08BD08B5FFF7ED
:10456000FFF908BD08B5FFF763FA08BD08B5FFF706
:1045700007FA08BD08B50846FFF740F9012008BD55
:1045800008B50846FFF73AF9012008BD10B51446F2
:1045900008461146FFF782F9204610BD38B50D4692
:1045A000084600F061FC044628462146FFF776F9EC
:1045B000204638BD704700BF044B00221A714FF4EB
:1045C0007A7199601A73024A1A6070473CD1FF1FD2
:1045D000785D000008B503681B68C9B2984708BD3C
:1045E00008B503681B68C9B2984708BD08B50368D9
:1045F0001B68C9B2984708BD08B503681B68C9B2F3
:10460000984708BD08B54B0803F1376000F5D8306E
:10461000B0FBF1F0FFF7AAFA08BD00BF10B51446D1
:104620004B0803F1376000F5D830B0FBF1F0FFF72D
:104630009DFA2046FFF7E0FA10BD00BF08B5FFF76E
:104640000BFB08BD08B50846FFF738FB08BD00BFE7
:1046500008B5FFF723FC08BD08B5FFF74BFC08BD04
:1046600008B5FFF72BFC08BD08B5FFF7F5FB08BD43
:1046700008B5FFF759FC08BD08B5FFF7FDFB08BDFD
:1046800008B50846FFF736FB012008BD08B5084607
:10469000FFF730FB012008BD10B51446084611464F
:1046A000FFF778FB204610BD38B50D46084600F0F0
:1046B000DBFB044628462146FFF76CFB204638BD4D
:1046C000704700BF044B00221A714FF47A71996051
:1046D0001A73024A1A6070474CD1FF1FC85D000070
:1046E00008B503681B68C9B2984708BD08B50368D8
:1046F0001B68C9B2984708BD08B503681B68C9B2F2
:10470000984708BD08B503681B68C9B2984708BD3B
:1047100008B54B0803F1B76000F55840B0FBF1F065
:10472000FFF7A0FC08BD00BF10B514464B0803F10D
:10473000B76000F55840B0FBF1F0FFF793FC20465E
:10474000FFF7D2FC10BD00BF08B5FFF7FDFC08BDA8
:1047500008B50846FFF72AFD08BD00BF08B5FFF7FA
:10476000BFFD08BD08B5FFF7E7FD08BD08B5FFF7B9
:10477000C7FD08BD08B5FFF791FD08BD08B5FFF7F7
:10478000F5FD08BD08B5FFF799FD08BD08B5084659
:10479000FFF728FD012008BD08B50846FFF722FDF8
:1047A000012008BD10B5144608461146FFF76AFD02
:1047B000204610BD38B50D46084600F055FB0446AE
:1047C00028462146FFF75EFD204638BD704700BFF2
:1047D000044B00221A714FF47A7199601A73024ADD
:1047E0001A6070475CD1FF1F185E000008B5FEF725
:1047F00059FD08BD08B5FEF709FD08BD08B5FEF76F
:1048000031FD08BD08B5FEF7E5FD08BD08B5084651
:10481000FEF7D4FD08BD00BF08B508461146FEF7F7
:104820004FFD08BD704700BF044B00221A714FF4C2
:104830007A7199601A73024A1A6070476CD1FF1F2F
:10484000685E000030B40023B0FBF2F402FB1404F5
:104850001D46092C94BF30343734E4B2CC54B0FB3D
:10486000F2F008B10133EFE70D4400226A70934281
:1048700007DD885CCC5C8C54C8540132013B9A4201
:10488000F7DB084630BC704780F0004002E000BF14
:1048900081F0004142001FBF5FEA410392EA030F2B
:1048A0007FEA226C7FEA236C6AD04FEA1262D2EB75
:1048B0001363C1BFD218414048404140B8BF5B427A
:1048C000192B88BF704710F0004F40F4000020F013
:1048D0007F4018BF404211F0004F41F4000121F029
:1048E0007F4118BF494292EA030F3FD0A2F1010273
:1048F00041FA03FC10EB0C00C3F1200301FA03F1B1
:1049000000F0004302D5494260EB4000B0F5000FD3
:1049100013D3B0F1807F06D340084FEA310102F192
:104920000102FE2A51D2B1F1004F40EBC25008BF44
:1049300020F0010040EA03007047490040EB00000E
:1049400010F4000FA2F10102EDD1B0FA80FCACF13D
:10495000080CB2EB0C0200FA0CF0AABF00EBC2503C
:1049600052421843BCBFD0401843704792F0000F2A
:1049700081F4000106BF80F400000132013BB5E77D
:104980004FEA41037FEA226C18BF7FEA236C21D0F3
:1049900092EA030F04D092F0000F08BF0846704758
:1049A00090EA010F1CBF0020704712F07F4F04D126
:1049B000400028BF40F00040704712F100723CBF39
:1049C00000F50000704700F0004343F0FE4040F463
:1049D000000070477FEA226216BF08467FEA236321
:1049E0000146420206BF5FEA412390EA010F40F40C
:1049F000800070474FF0000304E000BF10F0004358
:104A000048BF40425FEA000C08BF704743F096433E
:104A100001464FF000001CE050EA010208BF704759
:104A20004FF000030AE000BF50EA010208BF7047E0
:104A300011F0004302D5404261EB41015FEA010CF5
:104A400002BF84460146002043F0B64308BFA3F1ED
:104A50008053A3F50003BCFA8CF2083AA3EBC253CF
:104A600010DB01FA02FC634400FA02FCC2F12002EE
:104A7000BCF1004F20FA02F243EB020008BF20F025
:104A80000100704702F1200201FA02FCC2F120028B
:104A900050EA4C0021FA02F243EB020008BF20EA80
:104AA000DC7070474FF0FF0C1CEAD0521EBF1CEAAE
:104AB000D15392EA0C0F93EA0C0F6FD01A4480EA9C
:104AC000010C400218BF5FEA41211ED04FF0006385
:104AD00043EA501043EA5111A0FB01310CF00040B1
:104AE000B1F5000F3EBF490041EAD3715B0040EAD7
:104AF000010062F17F02FD2A1DD8B3F1004F40EBA7
:104B0000C25008BF20F00100704790F0000F0CF079
:104B1000004C08BF49024CEA502040EA51207F3A3D
:104B2000C2BFD2F1FF0340EAC250704740F4000018
:104B30004FF00003013A5DDC12F1190FDCBF00F009
:104B400000407047C2F10002410021FA02F1C2F1B7
:104B5000200200FA02FC5FEA310040F1000053EA53
:104B60004C0308BF20EADC70704792F0000F00F0A1
:104B7000004C02BF400010F4000F013AF9D040EAA7
:104B80000C0093F0000F01F0004C02BF490011F43B
:104B9000000F013BF9D041EA0C018FE70CEAD15339
:104BA00092EA0C0F18BF93EA0C0F0AD030F0004CB9
:104BB00018BF31F0004CD8D180EA010000F000406D
:104BC000704790F0000F17BF90F0004F084691F02B
:104BD000000F91F0004F14D092EA0C0F01D1420265
:104BE0000FD193EA0C0F03D14B0218BF084608D12E
:104BF00080EA010000F0004040F0FE4040F4000078
:104C0000704740F0FE4040F4400070474FF0FF0C0A
:104C10001CEAD0521EBF1CEAD15392EA0C0F93EA51
:104C20000C0F69D0A2EB030280EA010C49024FEAA3
:104C3000402037D04FF0805343EA111143EA10135C
:104C40000CF000408B4238BF5B0042F17D024FF414
:104C5000000C8B4224BF5B1A40EA0C00B3EB510FEF
:104C600024BFA3EB510340EA5C00B3EB910F24BFD8
:104C7000A3EB910340EA9C00B3EBD10F24BFA3EB5D
:104C8000D10340EADC001B0118BF5FEA1C1CE0D125
:104C9000FD2A3FF650AF8B4240EBC25008BF20F0D8
:104CA000010070470CF0004C4CEA50207F32C2BF2C
:104CB000D2F1FF0340EAC250704740F400004FF0C9
:104CC0000003013A37E792F0000F00F0004C02BFFA
:104CD000400010F4000F013AF9D040EA0C0093F0C4
:104CE000000F01F0004C02BF490011F4000F013B1E
:104CF000F9D041EA0C0195E70CEAD15392EA0C0F86
:104D000008D142027FF47DAF93EA0C0F7FF470AFBD
:104D1000084676E793EA0C0F04D14B023FF44CAF00
:104D200008466EE730F0004C18BF31F0004CCAD195
:104D300030F000427FF45CAF31F000437FF43CAFD1
:104D40005FE700BF42000ED2B2F1FE4F0BD34FF02F
:104D50009E03B3EB126209D44FEA002343F00043F1
:104D600023FA02F070474FF00000704712F1610F14
:104D700001D1420202D14FF0FF3070474FF00000E6
:104D8000704700BF70B50F4E0F4D761BB61007D0A1
:104D9000043D0024013455F8043F9847A642F9D158
:104DA0000A4E0B4D761B01F06BF8B61008D0043D8F
:104DB0000024013455F8043F9847A642F9D170BD4C
:104DC00070BD00BF8C5E00008C5E0000AC5E000019
:104DD0008C5E0000F0B4840743D0541E002A3ED0FD
:104DE000CDB2034603E0621E002C38D0144603F80F
:104DF000015B9A07F7D1032C2AD9CDB245EA0525E4
:104E00000F2C45EA054515D9A4F110073F0903F118
:104E1000100606EB07161A46156055609560D560BA
:104E20001032B242F8D104F00F040137032C03EB27
:104E300007130DD91E462246043A032A46F8045B9E
:104E4000FAD8221F22F003020432134404F00304B0
:104E50002CB1C9B21C4403F8011BA342FBD1F0BC26
:104E6000704714460346C6E720F0030110F0030024
:104E7000C0F1000051F8043B00F1040C4FEACC0CE7
:104E80006FF000021CBF22FA0CF213434FF0010C2A
:104E90004CEA0C2C4CEA0C4CA3EB0C0222EA030269
:104EA00012EACC1204BF51F8043B0430F4D013F0E2
:104EB000FF0F1FBF013013F47F4F013013F47F0F3A
:104EC00018BF0130704700BF024B13B10248FDF715
:104ED000CDBA704700000000DD4E000038B5094D26
:104EE000094C641BA41018BF05EB840505D0013CD8
:104EF00055F8043D9847002CF9D1BDE8384000F042
:104F0000D5BF00BF0000000000000000FFFFFFFF52
:104F1000000000000000000049060000D504000069
:104F20006D040000A904000065040000690400008D
:104F30000507C0000000000080540000404F000042
:104F400000A8008800A80000000000000000202049
:104F50002020002000505050000000000050F85069
:104F6000F850000070A070287000809020409010D1
:104F7000000040A040A050002020200000000020A1
:104F80004040404020004020202020400000502091
:104F900070205000002020F8202000000000003089
:104FA0002040000000F000000000000000606000F1
:104FB0000010204080000020505050502000206001
:104FC00020202070006090102040F000F010601051
:104FD0009060002060A0F0202000F080E010906041
:104FE000006080E090906000F01020204040006061
:104FF0009060909060006090907010600000606021
:105000000060600000606000604080001020402070
:1050100010000000F000F0000000402010204000D0
:10502000205010200020006090B0B08060006090A0
:1050300090F0909000E090E09090E0006090808090
:10504000906000E090909090E000F080E08080F030
:1050500000F080E080808000609080B090700090D0
:1050600090F0909090007020202020700010101080
:105070001090600090A0C0C0A090008080808080D0
:10508000F00090F0F09090900090D0D0B0B09000F0
:1050900060909090906000E09090E0808000609040
:1050A0009090D06010E09090E0A090006090402040
:1050B00090600070202020202000909090909060C0
:1050C0000090909090606000909090F0F090009030
:1050D00090606090900050505020202000F01020F0
:1050E0004080F00070404040407000008040201040
:1050F0000000701010101070002050000000000020
:105100000000000000F0004020000000000000004F
:105110007090B050008080E09090E00000006080CF
:1051200080600010107090907000000060B0C0604F
:1051300000205040E040400000007090608070808F
:1051400080E09090900020006020207000100010FF
:10515000101050208080A0C0A0900060202020204F
:1051600070000000A0F09090000000E0909090008F
:10517000000060909060000000E09090E0800000EF
:1051800070909070100000E090808000000070C06F
:1051900030E0004040E040403000000090909070CF
:1051A000000000505050200000009090F0F00000EF
:1051B000009060609000000090905020400000F04F
:1051C0002040F0001020602020100020202020200F
:1051D00020004020302020400050A00000000000AF
:1051E00000000000000000200020202020000020FF
:1051F00070A0A07020003040E040B00000887050E7
:1052000070880050502070202000002020002020B6
:10521000003040605030106050000000000000700E
:1052200088A8C8A8887060A060000000000000483E
:1052300090480000000000F0100000000000700026
:1052400000007088E8C8C88870F000000000000006
:10525000205020000000002020F82020F8006020CE
:1052600040600000006060206000000020400000FE
:105270000000000000909090E08070D0D05050501E
:1052800000000060600000000000000000204020DE
:1052900060207000000040A040000000000000906E
:1052A0004890000080808090307010808080B01026
:1052B0002030C0C040D0307010200020405020006E
:1052C000609090F0909000609090F09090006090CE
:1052D00090F0909000609090F0909000906090F02E
:1052E000909000606090F090900070A0B0E0A0B04E
:1052F0000060908080906040F080E08080F000F05E
:1053000080E08080F000F080E08080F000F080E0BD
:105310008080F0007020202020700070202020204D
:10532000700070202020207000702020202070004D
:10533000E050D05050E000B090D0B0B090006090FD
:10534000909090600060909090906000609090903D
:10535000906000609090909060009060909090605D
:10536000000000906060900070B0B0D0D0E000907D
:1053700090909090600090909090906000909090AD
:1053800090906000900090909060005050502020CD
:10539000200080E090E08080006090A09090A000CD
:1053A00040207090B0500020407090B050002050CD
:1053B0007090B0500050A07090B0500050007090AD
:1053C000B0500060607090B05000000070B0A070ED
:1053D0000000003040403020402060B0C06000201D
:1053E0004060B0C0600040A060B0C06000A000603D
:1053F000B0C060004020602020700020406020206D
:10540000700020506020207000500060202070004C
:105410004030609090600050A0E09090900040205C
:10542000609090600020406090906000600060900C
:1054300090600050A060909060005000609090607C
:1054400000006000F0006000000070B0D0E000409C
:10545000209090907000204090909070006000909C
:10546000909070005000909090700020409090506C
:1054700020400080E09090E08050009090502040CC
:105480000000200021002200230024002500260027
:105490002700280029002A002B002C002D002E00B8
:1054A0002F00300031003200330034003500360068
:1054B0003700380039003A003B003C003D003E0018
:1054C0003F004000410042004300440045004600C8
:1054D0004700480049004A004B004C004D004E0078
:1054E0004F00500051005200530054005500560028
:1054F0005700580059005A005B005C005D005E00D8
:105500005F00600061006200630064006500660087
:105510006700680069006A006B006C006D006E0037
:105520006F007000710072007300740075007600E7
:105530007700780079007A007B007C007D007E0097
:10554000A000A100A200A300A400A500A600A7003F
:10555000A800A900AA00AB00AC00AD00AE00AF00EF
:10556000B000B100B200B300B400B500B600B7009F
:10557000B800B900BA00BB00BC00BD00BE00BF004F
:10558000C000C100C200C300C400C500C600C700FF
:10559000C800C900CA00CB00CC00CD00CE00CF00AF
:1055A000D000D100D200D300D400D500D600D7005F
:1055B000D800D900DA00DB00DC00DD00DE00DF000F
:1055C000E000E100E200E300E400E500E600E700BF
:1055D000E800E900EA00EB00EC00ED00EE00EF006F
:1055E000F000F100F200F300F400F500F600F7001F
:1055F000F800F900FA00FB00FC00FD00FE00FF00CF
:105600000000000000000100020004000600080085
:105610000B000F00140019001F0026002E00370099
:1056200041004B0057006300710080008F00A00014
:10563000B200C500DA00EF0006011E013701520179
:105640006E018B01A901C901EB010E023202570262
:105650007F02A702D202FD022B0359038A03BC0377
:10566000EF0325045C049404CF040B05480588056A
:10567000C9050C0651069806E0062A077607C407F6
:1056800014086608B9080F096709C0091B0A790AD6
:10569000D80A3A0B9D0B030C6A0CD40C3F0DAD0DD0
:1056A0001D0E8F0E030F790FF20F6C10E9106811A9
:1056B000E9116C12F2127A13041490141F15B0152C
:1056C0004316D91671170B18A7184619E8198B1A23
:1056D000321BDA1B851C331DE21D951E491F01205C
:1056E000BB2077213622F722BB2381244A251626A8
:1056F000E426B52788285E29362A112BEF2BD02CDB
:10570000B32D992E812F6D305A314B323F333534C2
:105710002E352936283729382D39333A3D3B493C37
:10572000593D6B3E803F9740B241D042F043134514
:105730003A4663478F48BE49F04A254C5D4D974E27
:10574000D54F16515A52A153EB5438568757DA5851
:10575000315A8A5BE65C455EA75F0D617662E16364
:105760005065C2663768AF692B6BAA6C2B6EB06F41
:105770003971C4725374E5757A771279AE7A4C7CBC
:10578000EF7D947F3D81E98298844B860188BA89B8
:10579000768B368DFA8EC0908A9258942996FD9712
:1057A000D499B09B8E9D709F55A13EA32AA51AA7A0
:1057B0000DA904ABFEACFBAEFCB001B309B515B747
:1057C00024B937BB4DBD67BF84C1A5C3CAC5F2C7E5
:1057D0001ECA4DCC80CEB7D0F1D22FD571D7B6D955
:1057E000FEDB4BDE9BE0EFE247E5A2E701EA63EC7C
:1057F000CAEE34F1A2F313F688F802FB7EFDFFFF38
:105800000000000000000000000000000000000098
:105810000000000000000000000000000000000088
:105820000000000000000000000000000000000078
:105830000000000000000000000000000000000068
:10584000000001010101010101010101010101014A
:105850000101010101010101010101010101010138
:10586000010101010101020202020202020202021E
:105870000202020202020202020202020203030305
:1058800003030303030303030303030303030304E7
:1058900004040404040404040404040404040505C6
:1058A00005050505050505050505050606060606A3
:1058B000060606060606060707070707070707077F
:1058C0000707080808080808080808080909090956
:1058D00009090909090A0A0A0A0A0A0A0A0A0B0B2B
:1058E0000B0B0B0B0B0B0C0C0C0C0C0C0C0C0D0DFC
:1058F0000D0D0D0D0D0E0E0E0E0E0E0E0F0F0F0FC9
:10590000000000000000010101010101010101028C
:10591000020202020202020203030303030303035F
:105920000404040404040505050505060606060628
:1059300007070707080808080909090A0A0A0A0BDD
:105940000B0B0C0C0C0D0D0D0E0E0F0F0F1010117C
:1059500011111212131314141515161617171818FF
:1059600019191A1A1B1C1C1D1D1E1F1F2020212265
:10597000222324252526272728292A2B2B2C2D2EA8
:105980002F2F30313233343536363738393A3B3CC5
:105990003D3E3F4041424344464748494A4B4C4DB7
:1059A0004F50515253555657585A5B5C5E5F606278
:1059B00063646667696A6C6D6E707173747678790A
:1059C0007B7C7E8081838486888A8B8D8F91929464
:1059D00096989A9B9D9FA1A3A5A7A9ABADAFB1B384
:1059E000B5B7B9BBBDBFC1C4C6C8CACCCFD1D3D669
:1059F000D8DADCDFE1E4E6E8EBEDF0F2F5F7FAFC0B
:105A0000FF000000701919008B00000070191900C8
:105A1000800000008B000000CD000000578B2E009E
:105A200080800000A09E5F00FF0000008B8B0000C4
:105A3000ED956400D4FF7F00578B2E00FFFF000020
:105A4000FACE87000000FF00002AD5000055AB0009
:105A5000007FAB0000ABAB0000D5560000FF00009C
:105A60002AD5000055AB0000AA560000FF00000038
:105A7000D5002A00AB00550081007F005500AB0027
:105A80002B00D50000000000000080000000000096
:105A90000000800000008B000000800000008B00F0
:105AA00000008B0000008B000000FF0000A5FF003D
:105AB000FFFFFF0000A5FF000000FF0000008B00BB
:105AC000000000000000FF00000000000055AB00D7
:105AD0000000000000ABAB000000000000FF000071
